:030000000208A84B
:0C08A800787FE4F6D8FD75810F0208B4DB
:0A08B400E4F5A0F5B012087480FB13
:080800007F647E007D007C0096
:100808008F0B8E0A8D098C08E4FFFEFDFCAB0BAA4A
:0B0818000AA909A808D3120897405055
:10082300E4750F01F50EF50DF50CE47FCE7E31FD79
:10083300FCAB0FAA0EA90DA80CC31208975017E51D
:100843000F2401F50FE4350EF50EE4350DF50DE437
:10085300350CF50C80D4E50B24FFF50BE50A34FFCA
:0E086300F50AE50934FFF509E50834FFF5084C
:03087100809D2245
:1008740075A01175B00412080075A00C75B00212B1
:10088400080075A02275B0017F647E007D007C00A5
:030894000208084F
:10089700EB9FF5F0EA9E42F0E99D42F0E89C45F0B7
:0108A700222E
:00000001FF
